:020000040800F2
:10000000600800204901000887140008D113000887
:10001000851400080B0A0008F726000800000000FD
:10002000000000000000000000000000192500088A
:100030000D0A000800000000172500081B25000815
:100040006301000863010008630100086301000800
:1000500063010008630100086301000863010008F0
:1000600063010008630100086301000863010008E0
:1000700063010008630100086301000863010008D0
:1000800063010008630100086301000863010008C0
:1000900063010008630100086301000863010008B0
:1000A00063010008630100086301000863010008A0
:1000B0006301000863010008630100086301000890
:1000C0006301000863010008630100086301000880
:1000D0006301000863010008630100086301000870
:1000E0006301000863010008630100086301000860
:1000F0006301000863010008630100086301000850
:10010000630100086301000863010008630100083F
:10011000630100086301000863010008630100082F
:10012000630100086301000863010008630100081F
:10013000DFF810D000F040FC00480047F134000820
:10014000AFF300806008002006488047064800475B
:10015000FEE7FEE7FEE7FEE7FEE7FEE7FEE7FEE777
:10016000FEE7FEE77D25000831010008202A04DBB8
:10017000203A21FA02F00021704721FA02F3D04020
:10018000C2F120029140084319467047D2B201E003
:1001900000F8012B491EFBD270470022F6E710B58C
:1001A00013460A4604461946FFF7F0FF204610BDE5
:1001B000421E12F8013F002BFBD111F8013B02F85F
:1001C000013B002BF9D17047421C10F8011B00299C
:1001D000FBD1801A704710B5002200E0521C835CEE
:1001E0008C5CA34201D1002BF8D1D8B2E1B2401A05
:1001F00010BDF0B480EA0102D40F4200B2EB410F0F
:1002000002D20246084611464A0042D0C30DDDB272
:10021000C1F3C752AD1A202D35DAC1F3160141F4EE
:10022000000204B15242C5F1200602FA06F12A4149
:100230001044B3EBD05F23D0C4B1012DA0EBC35069
:1002400009DCF0BC4FF0004202EAC352DBB200F519
:10025000000000F0CABA400000F1807000EBC3500B
:10026000A0F1807040EAD170490009E0490841EAF4
:10027000C071A0EBC35000F50000400800EBC35074
:10028000F0BC00F0A9BA6142012202EB4101001B5F
:10029000F6E7F0BC704781F00041AAE780F000402B
:1002A000A7E72DE9FE4F804681EA0300C00F0C4608
:1002B000009021F0004123F00045B8EB0200A94175
:1002C00005D24046214690461C460B46024623F086
:1002D0000040104347D0270DC7F30A00C3F30A516B
:1002E0000290401A019040286BDAC3F3130040F4E7
:1002F000801B0098924620B10023D2EB030A63EBE7
:100300000B0B01985946C0F14002504600F043FAE9
:1003100006460D4650465946019A00F04BFA10EB3E
:1003200008006141002487EA115284EAE7731A4306
:1003300040D0009A62B3019A012A4FEA075215DCB5
:10034000001B61EB02014FF0004202EA0752CDE9C7
:100350000042001C41F5801132462B4600F082FA23
:1003600003B0BDE8F08F40462146F9E7001B61EB82
:100370000201001C41F5801300185B412018A2F512
:10038000001747EB030140EAD570B6196D4111E043
:100390006D084FEA360645EAC0754FEA0752001B62
:1003A00061EB0201001C41F5801149084FEA300061
:1003B0000019514132462B4603B0BDE8F04F00F022
:1003C00042BA0098012240000023D0EB020263EB06
:1003D000E073009821464FEAE074B8EB000061EB4F
:1003E0000401E9E783F000435BE781F0004158E74F
:1003F0002DE9FE4F81EA030404F0004421F000419E
:1004000000944FF0000B23F0004350EA01045ED04B
:1004100052EA03045BD0C3F30A54C1F30A552C44D7
:10042000A4F2F3340194A0FB0254C1F3130141F48C
:100430008011C3F3130343F4801301FB024400FB58
:10044000034E840A970A44EA815447EA8357A4FB7F
:10045000076802958D0A05FB07854FEA932C04FB7C
:100460000C542705029D4FEA065847EA1637B5EBAC
:1004700008056EEB070C870E920E47EA811742EAD9
:100480008312A7FB0201B6EB0B0164EB00042B0DFA
:1004900043EA0C335E1844EB1C50DA465146E7FB46
:1004A0000201C5F313044FEA0B3343EA14534FEA36
:1004B0000432019C43EA0603A4F10C040294009C5C
:1004C000CDE900B400F0CEF903B0BDE8F08F002014
:1004D0000146F9E72DE9F04D81EA030404F0004BF1
:1004E00021F0004514464FF0000A23F0004150EA85
:1004F000050220D054EA01021DD0C5F30A57024676
:10050000C5F31303C1F31300C1F30A5640F4801579
:1005100043F48013A7EB0608101BD64608F2FD38FB
:1005200073EB050002D308F1010801E092185B416A
:10053000B8F1000F03DA00200146BDE8F08D00207D
:100540004FF48011064684460EE0171B73EB050737
:1005500005D3121B63EB050306434CEA010C490863
:100560004FEA300092185B4150EA0107EDD152EAA0
:10057000030012D082EA040083EA0501084305D093
:10058000101BAB4106D20122002306E000224FF0EF
:10059000004302E06FF0010253101AEB06004CEB2F
:1005A000085110EB0A0041EB0B01BDE8F04D00F0E3
:1005B0004AB9C10F80EAE0700844CA0796230021B7
:1005C00000F013B90EB5C10F80EAE0700844CA0705
:1005D000002140F233438DE80E000A460B4600F03E
:1005E00041F903B000BD0EB540F233410291002144
:1005F000CDE900110A460B4600F034F903B000BD06
:1006000070B5C1F30A5201F000450024C1F3130193
:1006100040F2FF3341F480119A4201DA002070BDAC
:1006200040F233439A42A2F2334203DC5242FFF7D4
:100630009DFD00E090402C43F1D0404270BDC1F3DD
:100640000A5210B5C1F3130140F2FF3341F4801197
:100650009A4201DA002010BD40F233439A42A2F2DE
:10066000334203DC5242FFF781FD10BD904010BDC4
:1006700030B5041E71F1000404DB4FF00044404229
:1006800064EB0101141E73F1000405DB1C464FF0FE
:100690000043524263EB04038B4208BF824230BDE9
:1006A00030B5041E71F1000404DB4FF000444042F9
:1006B00064EB0101141E73F1000405DB1C464FF0CE
:1006C0000043524263EB0403994208BF904230BD9D
:1006D00001F0004330B421F0004150EA010206D09D
:1006E0000A0DA2F56072C1F31301002A02DC30BCCE
:1006F00000207047440F44EAC104C100E01830BC38
:1007000000EBC25000F068B830B50B46014600203F
:100710002022012409E021FA02F59D4205D303FAC3
:1007200002F5491B04FA02F52844151EA2F1010244
:10073000F1DC30BD2DE9F05F0546002092469B4676
:1007400088460646814640241BE0284641464746E7
:100750002246FFF70BFD53465A46C01A914110D36B
:1007600011461846224600F016F82D1A67EB0108CC
:100770004F4622460120002100F00DF817EB00093A
:100780004E41201EA4F10104DFDC484631462A46D2
:100790004346BDE8F09F202A04DB203A00FA02F12C
:1007A000002070479140C2F1200320FA03F319435F
:1007B00090407047202A06DBCB17203A41FA02F01E
:1007C00043EAE07306E041FA02F3D040C2F12002AE
:1007D00091400843194670470029A8BF7047401C44
:1007E000490008BF20F00100704710B4B0FA80FC47
:1007F00000FA0CF050EA010404BF10BC704749B184
:10080000CCF1200421FA04F411FA0CF118BF0121F3
:1008100021430843A3EB0C01CB1D4FEA00614FEAD3
:10082000102042BF002010BC704700EBC3501044A2
:100830000029A4BF10BC7047401C490008BF20F02D
:10084000010010BC704710B5141E73F1000408DAE3
:10085000401C41F1000192185B411A4301D120F084
:10086000010010BD2DE9F04D92469B4611B1B1FA41
:1008700081F202E0B0FA80F220329046FFF78BFF5F
:1008800004460F4640EA0A0041EA0B0153465A4625
:10089000084313D0114653EA010019D0C8F14002B1
:1008A0005046FFF763FC05460E4650465946424601
:1008B000FFF771FF084305D0012004E020463946C8
:1008C000BDE8F08D0020054346EAE0762C4337432F
:1008D0000A986305E40AA0EB08000022FD0A44EA36
:1008E00047540A3002D500200146E9E701051019F6
:1008F0006941DDE9084500196941BDE8F04DA2E70D
:100900002DE9F041054621F000400C46284309D06E
:10091000C4F30A5040F23341884205DD284621469F
:10092000BDE8F0812846FBE740F2FE31884210DC4A
:100930000CDB4FEA043040EA155050EA053105D08F
:10094000104804F0004101430020E9E7002001467F
:10095000E6E7A0F233404642C6F14002284621466F
:10096000FFF719FF07468846284621463246FFF71B
:10097000FDFB43463A46FFF766FF3246BDE8F041CD
:10098000FFF709BF0000F03FC1F30A52C1F31301A2
:1009900040F2FF3341F480119A4202DA002001460E
:1009A000704740F233439A42A2F2334202DC524291
:1009B000FFF7DCBBFFF7EFBE064C074D06E0E06833
:1009C00040F0010394E8070098471034AC42F6D396
:1009D000FFF7B2FB304200085042000870B521F02A
:1009E000004303430CD0C1F30A550024D5EB0405A2
:1009F00064EB0403D617AD1AB34102DB00200146B5
:100A000070BD201841EB025170BDFEE7704772B611
:100A1000FEE7000070B5044600F010F90546601CC2
:100A200002D004480078044400F008F9401BA042BA
:100A3000FAD370BD000000202DE9F84FDFF8C8910F
:100A40000024A9F1040B23460F2709F1040AABF196
:100A5000040ED1E00125A54006EA0502AA4276D19E
:100A6000DFF8A8C14E68A6EB0C0866452BD00DDC5C
:100A7000032E34D005DC36B3012E19D0022E2FD12F
:100A80001BE0112E16D0122E2AD119E0B8F5881FBE
:100A900019D006DCB8F5803F15D0B8F5801F1FD1FE
:100AA00011E0B8F5001F0ED0B8F5041F18D10AE008
:100AB000CB6815E0CB681B1D12E0CB6808330FE054
:100AC000CB680C330CE08B682BB1012B4FF0080383
:100AD00003D0456104E0042302E0056100E0002347
:100AE000FF2A01D8064601E000F104064FEA84051A
:100AF00001D9A5F12005D6F8008007FA05FC28EAFF
:100B00000C0803FA05F548EA0508C6F800804D68A8
:100B1000ED0070D53E4DAE6946F00106AE61AD699F
:100B200024F0030605F0010500953A4D06EB050C8F
:100B3000DCF80850A607360F07FA06F825EA08057C
:100B4000DFF8D480404503D14FF0000825E052E0A3
:100B5000DFF8C880404502D14FF001081DE0DFF802
:100B6000C080404502D14FF0020816E0DFF8B480A3
:100B7000404502D14FF003080FE0DFF8AC8040455C
:100B800002D14FF0040808E0DFF8A080404502D110
:100B90004FF0050801E04FF0060808FA06F848EAA9
:100BA0000508CCF808804D68D9F80060ED024D4684
:100BB00001D5164300E096432E604D68DAF80060D8
:100BC000AD02554601D5164300E096432E604D68B0
:100BD000DBF80060AD035D4601D5164300E09643A7
:100BE0002E604D68DEF80060ED03754601D51643B2
:100BF00000E096432E60641C0A681646E2407FF4CB
:100C000029AFBDE8F88F0000080401400000111072
:100C1000001002400000014000080140000C0140AB
:100C2000001001400014014000180140001C014068
:100C30000AB1016170470904FBE7000001488068C0
:100C400070470000000000200248816802781144CB
:100C50008160704700000020074810B5016841F02E
:100C600010010160032000F067F80F2000F006F883
:100C700000F024F8002010BD0020024070B50D4D9A
:100C800004464FF47A712878B1FBF0F00A490968FC
:100C9000B1FBF0F000F0CEFA48B9102C07D20022D8
:100CA0002146501E00F028F800206C6070BD012025
:100CB00070BD0000000000200C0000200C4808B5AA
:100CC000816941F001018161816901F001010091B7
:100CD000C16941F08051C161C06900F0805000904D
:100CE0000448416821F0E06141F00071416008BDB5
:100CF0000010024000000140F0B40E4B1B680C468F
:100D0000C3F30223C3F10705042D00D90425191DDF
:100D1000072901D2002300E0DB1E012606FA05F1B7
:100D2000491E214099409E40761E16403143F0BC3A
:100D300001F022BD0CED00E0064900F00702086852
:100D40004FF6FF03184040EA0220034A10430860B0
:100D5000704700000CED00E00000FA052DE9F047B7
:100D60000F46050061D0434E306800F00700B842DE
:100D700009D2306820F0070038433060306800F056
:100D80000700B84251D128683B4C810712D5400773
:100D900003D5606840F4E06060602878000703D500
:100DA000606840F4605060606068A96820F0F000FE
:100DB000084360602878C00728D06868012810D0F0
:100DC0002168022810D0890700292EDA616821F0F5
:100DD000030101436160FFF731FF804641F288392A
:100DE0000DE021688903EFE78901EDE7FFF726FFB2
:100DF000A0EB0801494502D90320BDE8F0876068EF
:100E0000696800F00C00B0EB810FEFD1306800F0A2
:100E10000700B8420BD9306820F007003843306033
:100E2000306800F00700B84201D00120E5E72878DB
:100E3000400705D56068E96820F4E0600843606019
:100E40002878000706D56068296920F4605040EAD8
:100E5000C100606000F038F86168084AC1F303110E
:100E6000515CC8400649086006480068FFF706FF65
:100E70000020C2E700200240001002407541000837
:100E80000C0000200400002004480549006849685F
:100E9000044AC1F30221515CC84070470C00002095
:100EA000001002408541000804480549006849686F
:100EB000044AC1F3C221515CC84070470C000020B5
:100EC00000100240854100080E4A51680E4801F0AA
:100ED0000C03042B11D0082B0FD10C48C1F3834312
:100EE000C903C05C0AD55168084AC1F34041921E4B
:100EF000515C054A5043B0FBF1F070470449484348
:100F0000704700000010024000127A00654100089E
:100F100000093D002DE9F84F040070D02078C04D45
:100F2000C00749D06868C0F38100012807D068680D
:100F3000C0F38100022809D16868C00306D528687B
:100F4000800339D560680028E7D035E06068B0F5E7
:100F5000803F0BD010B1B0F5A02F11D0286820F43D
:100F600080302860286820F4802002E0286840F45F
:100F700080302860606890B1FFF760FE06460AE0A6
:100F8000286840F480202860F0E700BFFFF756FE95
:100F9000801B642873D828688003F7D50CE0FFF71E
:100FA0004DFE064605E000BFFFF748FE801B6428A3
:100FB000F0D828688003F7D420789A4E80074FF045
:100FC00001094FF0000839D5686810F00C0F07D000
:100FD0006868C0F38100022809D16868C00306D49C
:100FE0002868800714D52069012808D110E02069FD
:100FF000B0B1C6F80090FFF721FE074605E00AE110
:10100000FFF71CFEC01B0228C4D828688007F7D54C
:101010002868616920F0F80040EAC10028600DE00E
:10102000C6F80080FFF70AFE074604E0FFF706FE59
:10103000C01B022823D828688007F7D4207800072F
:101040002CD57948A169D9B1C0F80090FFF7F6FD19
:10105000074604E0FFF7F2FDC01B02280FD8686ABC
:101060008007F7D571484FF4FA510068B0FBF1F0F2
:10107000009000BF0098411E0091FAD20EE080E07F
:10108000C0F80080FFF7DAFD074604E0FFF7D6FD61
:10109000C01B022875D8686A8007F7D420784007FB
:1010A00060D5E8690027C00008D4E86940F08050A6
:1010B000E861E869012700F0805000905C48016811
:1010C000C90513D40168834641F480710160FFF7BC
:1010D000B5FD824606E000BFFFF7B0FDA0EB0A00B9
:1010E00064284ED8DBF80000C005F5D5E06801287B
:1010F0000AD008B1052813D0286A20F00100286220
:10110000286A20F0040002E0286A40F0010028620A
:10111000E06841F2883B98B1FFF790FD82460BE012
:10112000286A40F004002862EEE700BFFFF786FD62
:10113000A0EB0A0159455AD8286A8007F6D50CE079
:10114000FFF77CFD824605E0FFF778FDA0EB0A0182
:1011500059454CD8286A8007F6D41FB1E86920F0B9
:101160008050E861E06988B36968C1F381010229B0
:1011700044D00228C6F8608004D0FFF75FFD044623
:1011800038E034E0FFF75AFD074604E0FFF756FD6C
:10119000C01B02282BD828688001F7D4206AB0F53C
:1011A000803F05D16868A16820F40030084368607A
:1011B000D4E908010843696821F4741108436860A0
:1011C000C6F86090FFF73AFD044606E025E000BF50
:1011D000FFF734FD001B022809D828688001F7D5E5
:1011E0001BE000BFFFF72AFD001B022802D90320E5
:1011F000BDE8F88F28688001F4D40EE00128F7D00C
:101200006868226A00F48031914204D1616A00F476
:101210007010884201D00120EAE70020E8E70000D2
:101220000010024000004242800442420C000020B4
:101230000070004010B5401EB0F1807F01D3012046
:1012400010BD4FF0E02460610F21601701F094FAA7
:101250000020A06107202061002010BD70B50400AF
:1012600004D094F84100002510B106E0012070BDC3
:1012700084F84050204600F023F8242084F84100F0
:101280002068C16821F40051C160204601F09EF938
:101290002068016921F4904101612068416921F0D1
:1012A0002A0141612068C16841F40051C160656450
:1012B000202084F8410084F842006563002070BD5E
:1012C00030B585B000240094019402940394006822
:1012D0001449884224D11448816941F480418161D4
:1012E000816901F480410491816941F004018161C7
:1012F00080690E4D00F0040004904FF400700090DF
:10130000022001900320039069462846FFF794FBD2
:101310002815CDE90004694628460294FFF78CFBA6
:1013200005B030BD00380140001002400008014007
:101330002DE9F843044690F84100984616460D46BC
:10134000202802D00220BDE8F88385B17EB10020BC
:101350006064212084F84100FFF770FCA684814678
:10136000E684A0682027B0F5805F02D003E001206A
:10137000E9E7206910B12E4600250EE000260CE0BA
:101380008021204601F07EF9A8B9C6B116F8010BFC
:1013900021684860E08C401EE084E08C4B464FF0B2
:1013A0000002CDF800800028EAD14FF0400120462D
:1013B00001F068F940B184F841700320C3E735F8C3
:1013C000020BC0F30800E3E784F841700020BAE79D
:1013D000FEE7000030B585B000241A48009401945F
:1013E00002940394816941F008018161816901F0EF
:1013F00008010491816941F0040181618069124D05
:1014000000F00400049000224CF220012846FFF76F
:101410000FFC4FF4404000901120CDE9010403205F
:10142000039069462846FFF707FB20200090012023
:10143000CDE901040220039069462846FFF7FCFA33
:1014400005B030BD00100240000C01400C4810B542
:101450000A4901604FF4E1314160002181600C22B2
:10146000C160C0E904128161C161FFF7F7FE002885
:1014700003D0BDE81040FFF7CABA10BD00380140E4
:1014800014000020FEE7FEE710B50021074C0A46D5
:10149000002004EBC1131A54401CC0B28028FAD3B8
:1014A000491CC9B20829F3D310BD00005C0000201C
:1014B000F0B50B4424E0044685181DE07F2C19D8B4
:1014C000002917DB3F2915DCCE1701EB56764FEAD2
:1014D000E60C0D4F26F0070607EBCC172744A1EBCF
:1014E000060E97F800C0012606FA0EF62CEA060C46
:1014F00087F800C0641C24B2A542DFDC491C09B295
:101500008B42D8DCF0BD00005C0000202DE9FF5FBD
:1015100014460D468046C2F1010B00262146304696
:101520000E9B039A00F0EAFC474620B1281901B24D
:10153000404600F07FFB61424FF0000A894650466A
:101540000E9B039A00F0DAFC20B1281B01B238464A
:1015500000F070FB314620460E9B039A00F0CEFC53
:1015600028B108EB0400294600B200F063FB5146A5
:1015700048460E9B039A00F0C1FC28B1A8EB04007A
:10158000294600B200F056FB0F98002811D04F46B4
:101590000DE0394600200E9B039A00F0AFFC20B10D
:1015A000E81901B2404600F045FB7F1C3FB2A7425C
:1015B000EFDBCBE0761C36B2BBF1000F02DA0BEBAF
:1015C000460004E0641E24B2311B0BEB4100401CBA
:1015D0000FFA80FB214630460E9B039A00F08EFCEA
:1015E00030B1281901B208EB060000B200F022FB6E
:1015F000314620460E9B039A00F080FC30B1A819BA
:1016000001B208EB040000B200F014FB604201B22A
:10161000704200B2894682460E9B039A00F06EFC2F
:1016200030B1281B01B2A8EB060000B200F002FBAB
:10163000514648460E9B039A00F060FC30B1A81B4F
:1016400001B2A8EB040000B200F0F4FA49463046BB
:101650000E9B039A00F052FC30B1281B01B208EB3C
:10166000060000B200F0E6FA514620460E9B039AAF
:1016700000F044FC30B1A81B01B208EB040000B23A
:1016800000F0D8FA214650460E9B039A00F036FC33
:1016900030B1281901B2A8EB060000B200F0CAFA76
:1016A000314648460E9B039A00F028FC30B1A81939
:1016B00001B2A8EB040000B200F0BCFA0F98E8B346
:1016C0004F461DE0394630460E9B039A00F016FC4B
:1016D00030B1E81901B208EB060000B200F0AAFA36
:1016E000394650460E9B039A00F008FC30B1E819C9
:1016F00001B2A8EB060000B200F09CFA7F1C3FB2DA
:10170000A742DFDB57461FE0394648460E9B039A47
:1017100000F0F4FB30B1E81901B2A8EB040000B20C
:1017200000F088FA394620460E9B039A00F0E6FB4B
:1017300040B1E81901B208EB040000E006E000B295
:1017400000F078FA7F1C3FB2B742DDDBA642FFF61D
:1017500031AFBDE8FF9F2DE9FF4F804687B0C2F152
:101760000100144603900D46081901B200264746B1
:10177000404600F05FFA281B01B2384600F05AFAE2
:1017800008EB040000B2294600F054FAA8EB04006C
:1017900000B2294600F04EFA0A98002875D0674238
:1017A00006E0E81901B2404600F044FA7F1C3FB25F
:1017B000A742F6DB69E0761C039836B2002802DA0D
:1017C00000EB460004E0641E24B2311B00EB410034
:1017D000401C00B20390281901B208EB060000B2C9
:1017E00081460291069000F025FAA81901B208EB93
:1017F000040000B28346059100F01CFA281B01B2D8
:10180000A8EB060000B20F460190009000F012FA1B
:10181000A81B01B2A8EB040000B28246049100F0BC
:1018200009FA3946484600F005FA5846049900F08E
:1018300001FA0299009800F0FDF95046059900F070
:10184000F9F90A9808B3604207B20BE0E81901B24F
:101850008946069800F0EEF94946019800F0EAF949
:101860007F1C3FB2A742F1DB704207B20BE0E819E0
:1018700001B28946504600F0DDF94946584600F06D
:10188000D9F97F1C3FB2B742F1DBA64293DB0BB024
:10189000BDE8F08F2DE9F04F91B080469946C9F12F
:1018A00000000E46174600251C460D90FEF78AFEE6
:1018B0000022A44BFEF7F5FC824607FB07FB5846C7
:1018C0000791FEF77FFECDE909015246079BFEF71F
:1018D0008FFD074609FB09F082460C91FEF772FE68
:1018E000CDE907013A460C9BFEF7DBFCFEF7F0FE64
:1018F00004901A9878B10D9F0BE0F01901B24046A0
:101900000C9100F097F940460C9900F093F97F1C78
:101910003FB2A742F1DB301901B208EB050000B27B
:10192000CDE90C0100F086F9301B01B2A8EB0500EF
:1019300007B238460E9100F07DF938460D9900F057
:1019400079F90E9952E004984FF00301B0F5000FB9
:1019500001EB45010AFB01F006DAFEF72AFE0499C5
:10196000FEF747FC04900DE06342022202EB4302C3
:101970000BFB0200FEF71DFE0499FEF73AFC641E05
:1019800024B204900E9805B21A98C0B1604207B212
:1019900008EB050000B20F90A8EB050000B20E9016
:1019A0000BE0F01901B20D910F9800F043F9DDE959
:1019B0000D1000F03FF97F1C3FB2A742F1DB301958
:1019C00001B208EB050000B2CDE90C0100F032F9DC
:1019D000301B01B2A8EB050007B238460F9100F0AA
:1019E00029F938460D9900F025F90F990C9800F067
:1019F00021F92046FEF7E6FD0022524BFEF7F2FCED
:101A000002460B46DDE90901FEF7F2FC0746681CB9
:101A1000CDE90D1000FB0AF0FEF7D4FD3A460D9B10
:101A2000FEF726FE8FD30BFB09F000FB09F0FEF753
:101A3000C9FD0B910E90611E0BFB01F04843FEF7B0
:101A4000C1FDCDE909102846FEF7BCFD00223D4B43
:101A5000FEF727FC02460B4607468946DDE90701EB
:101A6000FEF7C6FC3A464B46FEF7C2FCDDE90932FA
:101A7000FEF717FC0B9B0E9AFEF7B4FCFEF728FE50
:101A8000814659E0B9F5000F13DA022101EB450157
:101A9000634203220AFB01F002EB43020BFB02004C
:101AA000FEF787FD4946FEF7A4FB6D1C81462DB26B
:101AB0000BE06242032101EB42010BFB01F0FEF758
:101AC00078FD4946FEF795FB8146641E1A9824B2BC
:101AD000C0B1604207B208EB050000B20A90A8EB63
:101AE000050000B209900BE0F01901B208910A98C4
:101AF00000F0A0F8DDE9081000F09CF87F1C3FB270
:101B0000A742F1DB301901B208EB050000B2CDE9C4
:101B1000071000F08FF8301B01B2A8EB050007B2E8
:101B20003846099100F086F83846079900F082F8A7
:101B3000DDE9080100F07EF8002CA3DC11B0BDE85F
:101B4000F08F00000000E03F2DE9F04F1E464FF0FF
:101B5000000904460D461746C846B1420ED1BC42A4
:101B600008DD2746144605E02946204600F062F8C5
:101B7000641C24B2BC42F7DDBDE8F08FBC420DD13D
:101B8000B54208DD1D460E4605E02946204600F018
:101B900051F86D1C2DB2B542F7DDEDE703DD2746A8
:101BA00014461D460E46B54205DD684205B2704238
:101BB00006B24FF00109701B391B884207DD204631
:101BC0002C4605463846374606464FF00108701B3E
:101BD0004200391B0FFA82FB421A52000FFA82FAB6
:101BE000C1EB400019E0604201B203E0684201B27B
:101BF00003E02146284601E02946204600F01AF875
:101C0000BC42B9DA641C24B2002E02DA06EB0B00E7
:101C100003E06D1C2DB206EB0A0006B2B9F1000F0D
:101C200003D0B8F1000FE1D0DDE7B8F1000FE3D049
:101C3000DFE7000010B57F2813D8002911DB3F290A
:101C40000FDCCA1701EB5272D410064B22F00702C8
:101C500003EBC41318448A1A0378012191400B4303
:101C6000037010BD5C0000202DE9F0430446CD1840
:101C700007988846A618274668BB681E0FFA80F9A1
:101C800009E041463846FFF7D5FF49463846FFF799
:101C9000D1FF7F1C3FB2BE42F3DC761E474636B210
:101CA00009E039462046FFF7C5FF30463946FFF7C1
:101CB000C1FF7F1C3FB2BD42F3DCBDE8F083444668
:101CC00005E021463846FFF7B5FF641C24B2A54263
:101CD000F7DC7F1C3FB2BE42F1DCEEE72DE9F047B6
:101CE00085B00C46DDE90E810D9EADF80400ADF81F
:101CF0000C409A46914605462746ADF80620ADF8B9
:101D00000860ADF80E30ADF8108001B3494681454A
:101D100000DA0846864200DA30465146A24500DA2B
:101D20000C46A04500DA44464946A94500DD0D466B
:101D3000AE4200DD35465146BA4500DD0F46B84596
:101D400000DD47468046A84213DC264622E0534683
:101D50004A4621462846FFF7F7FE434632462146CB
:101D60002846FFF7F1FE4346324651464846FFF704
:101D7000EBFE05B0BDE8F087434603AA01A90320A6
:101D8000009600F08EFB18B131464046FFF752FF37
:101D9000761C36B2BE42EFDD08F1010000B2D1E799
:101DA00010B56420FEF736FE012000F039FBBDE8D7
:101DB0001040012000F040BB10B57F2814D8002946
:101DC00012DB3F2910DCCA1701EB5272D310074C0B
:101DD00022F0070204EBC3138A1A185C0121914018
:101DE000084201D0012010BD002010BD5C00002081
:101DF00070B500240646802525FA04F0304000D056
:101E0000012000F019FB012000F00AFB002000F087
:101E100007FB641CE4B2082CEED3012000F000FBA9
:101E2000BDE87040002000F0FBBA10B5012000F0C2
:101E300003FB012000F0F4FA002000F0FDFABDE8F9
:101E40001040002000F0ECBA10B5002000F0F4FAC9
:101E5000012000F0E5FABDE81040012000F0ECBAE6
:101E600010B5FFF79DFFAE2000F0F2FAD52000F08C
:101E7000EFFA802000F0ECFAA82000F0E9FA3F2009
:101E800000F0E6FAD32000F0E3FA002000F0E0FAD8
:101E9000402000F0DDFAA12000F0DAFAC82000F0BE
:101EA000D7FADA2000F0D4FA122000F0D1FA81201B
:101EB00000F0CEFACF2000F0CBFAD92000F0C8FA1B
:101EC000F12000F0C5FADB2000F0C2FA302000F06B
:101ED000BFFAA42000F0BCFAA62000F0B9FA8D20C9
:101EE00000F0B6FA142000F0B3FAAF2000F0B0FA18
:101EF000FFF7CAFABDE8104000F07EBA2DE9F041C4
:101F00001C4615468846FEF75DFB06460F464046D2
:101F1000FEF758FB32463B4601F01CFA0C4A0D4BCB
:101F2000FEF7D8FA00220C4BFEF762FAFEF768FBC8
:101F300000B2A54204DAA84207DBA04202DD04E0B9
:101F4000A842FADB0120BDE8F0810020FBE7000099
:101F50001F85EB51B81E09400080664002460120F3
:101F600000E05043491EFCD270470FB470B5C0B0BA
:101F700014460D46064648AA6846479900F0D6FB27
:101F800023466A462946304600F0C8F940B070BC86
:101F90005DF814FB10B5084B0021002003EBC112C3
:101FA000145CE4431454401CC0B28028F8D3491C8C
:101FB000C9B20829F1D310BD5C000020F0B50B4474
:101FC00023E0044685181CE07F2C18D8002916DB76
:101FD0003F2914DCCE1701EB567C4FEAEC070C4E80
:101FE0002CF0070C06EBC7162644A1EB0C0E377835
:101FF0004FF0010C0CFA0EFC87EA0C073770641CDA
:1020000024B2A542E0DC491C09B28B42D9DCF0BD08
:102010005C00002010B50C4640F0B00000F018FA4B
:10202000102040EA141000F013FA04F00F00BDE88D
:10203000104000F00DBA2DE9F0431D4617468946C1
:1020400080460024079E12E0291B0220491EFFF74C
:1020500085FFB7FBF0F000F0010204FB068000B240
:1020600033464946303200F007F8641CE4B2AC4213
:10207000EAD3BDE8F083000008B5082B0DD0062B8D
:102080000AD10A4B02EB420203EB4202C03A009231
:102090000823062200F092F808BD054B03EB02125C
:1020A000A2F50072102300920822F3E7143E000804
:1020B000243800082DE9FF5F82B014461D46DDE993
:1020C00011B607460022134620462946DDF8408017
:1020D000FEF7E6FA334605D82B2238460399FFF778
:1020E000CBFF06E02D2238460399FFF7C5FF85F0A8
:1020F000004520462946FEF7A2FA8246FEF773FA0B
:1021000022462B46FEF771F905460C4659460A2031
:10211000FFF724FF8146FEF766FA2A462346FEF7BC
:1021200067F901F011FBFEF78AFAB0FBF9F10446FA
:1021300001EB0A02B81900B243460096039900F079
:102140009BF808F1010000FB067000B233462E2216
:102150000399FFF791FF08F1020000FB067000B23F
:102160005B4622460096039900F086F806B0BDE86B
:10217000F09F2DE9F0431D4690468946074600240E
:10218000079E16E0291B1020491EFFF7E7FEB8FB4B
:10219000F0F000F00F0204FB06700A2A00B233468A
:1021A000494601D2303200E03732FFF765FF641C48
:1021B000E4B2AC42E6D3BDE8F08300002DE9F04F75
:1021C0001F4616460D4682460024FFF771F97F1E12
:1021D000F81707EB50700121DFF898B001EBE0072A
:1021E00043E000203DE000BF0AEB00037F2B36D820
:1021F000E91705EB5171CA1021F00701691A002D8A
:1022000003DA521E083112B209B202EB0409B9F125
:10221000070F0ED8099A04FB06F802440BEBC91EFF
:1022200018F802201EF803C08A404CEA020C0EF88F
:1022300003C009F10102072A11D80BEBC91202EB06
:102240000308099A04FB06FC024498F880301CF845
:102250000220C1F10801CA40134388F88030401CB5
:10226000C0B2B042C0D3641CE4B2A742B9DCBDE83E
:10227000F08F00005C0000202DE9F04700241D468F
:1022800090468A4681460A27089E14E0291B0A20A8
:10229000491EFFF763FEB8FBF0F0B0FBF7F107FB58
:1022A000110204FB069000B2334651463032FFF76C
:1022B000E3FE641CE4B2AC42E8D3BDE8F0872DE94C
:1022C000F0471E46DDF8208014008A4681464346CA
:1022D00004D42B22FFF7D0FE254603E02D22FFF782
:1022E000CBFE654200240A2714E0311B0A20491E58
:1022F000FFF734FEB5FBF0F0B0FBF7F107FB11027E
:10230000641C04FB089000B2434651463032FFF78C
:10231000B3FEE4B2B442E8D3BDE8F0872DE9FF4F45
:10232000002583B09B4690462C46AA46DFF8C09015
:1023300056E010068DF8042005F101050DD4039830
:10234000ADB220448DF805A000B25B460499FFF7BA
:1023500093FE04EB0B0084B242E0A8B218F8001020
:10236000002941D0401C8DF8051085B28DF806A0DB
:10237000002606E0384601A9FDF72DFF68B1761C5E
:10238000B6B2C6EBC60000EB800101EB09000746C0
:1023900018A1FDF720FF0028ECD1BBF1080F03D0F6
:1023A000BBF1060F1CD111E0C6EBC60000EB8001AB
:1023B00001EB0900C01C009003981023204400B2D8
:1023C0001A460499FFF7FAFE103408E00398062332
:1023D000204400B23F220499FFF74EFEA41DA4B290
:1023E00018F80520002AA4D107B0BDE8F08F00003E
:1023F0004E4000080000000070B5084D0024002188
:102400002046FFF707FE05EBC410802100F031F8ED
:10241000641CE4B2082CF2D370BD00005C00002004
:1024200008B1012200E000224FF480410148FEF78C
:10243000FFBB0000000C014008B1012200E00022B7
:102440004FF400410148FEF7F3BB0000000C0140CF
:1024500010B50446FFF7E9FC7820FFF7C9FC00201F
:10246000FFF7C6FC2046FFF7C3FCBDE81040FFF7AE
:10247000EBBC70B50D460646FFF7D7FC7820FFF79A
:10248000B7FC4020FFF7B4FC002404E0305DFFF708
:10249000AFFC641CE4B2AC42F8D3BDE87040FFF777
:1024A000D3BC2DE9F0479A460023894604461946D5
:1024B000401E089D28E032F91160AE4202DD4FF067
:1024C000010C01E04FF0000C32F91070AF4202DD58
:1024D0004FF0010801E04FF00008C44511D039F970
:1024E00010C039F91100A5EB0608ACEB000C0CFB91
:1024F00008FCBE1B9CFBF6F60644564501DD43B1C5
:1025000000230846491C09B2A142D4DB1846BDE8A5
:10251000F0870123F5E770477047FEF795BB30B5AC
:102520008FB028216846FDF738FE14210AA8FDF770
:1025300034FE01210804CDE9001000240294022594
:102540000491CDE907504FF4E01009906846FEF77A
:10255000E1FC08B172B6FEE70F20CDE90A054FF4A1
:102560008060CDE90C4002210AA80E94FEF7F6FB2C
:10257000002801D072B6FEE70FB030BD7047016889
:102580000C3151E8002F22F4907241E80023002B17
:10259000F5D10168143151E8002F22F0010241E821
:1025A0000023002BF5D1016B012909D101680C3101
:1025B00051E8002F22F0100241E80023002BF5D152
:1025C000202180F8421000210163704770B5044655
:1025D00000680169E26821F44051114301612169F9
:1025E000A0680843616908432168CA6841F20C6326
:1025F0009A430243CA6020684169A26921F440718C
:10260000114341611E492068884202D1FEF74CFC0B
:1026100001E0FEF739FC00EBC00101EB001260683D
:1026200064218000B2FBF0F3B3FBF1F36FF0180606
:102630007343B2FBF0F5B2FBF0F605EB83053223F2
:1026400003EB0515B5FBF1F5B6FBF1F605F0F0056A
:1026500005EB0615B2FBF0F6B2FBF0F0B0FBF1F0C3
:102660006FF01802504306EB800003EB0010B0FB44
:10267000F1F0216800F00F002844886070BD000070
:10268000003801402DE9F843984617460D460446A8
:10269000089E24E0701C22D0FEF7D0FAA0EB0800C0
:1026A000B0421AD8CEB12068C168490717D5802D2D
:1026B00015D0402D13D00168C94309070FD4016814
:1026C0000025406800902046FFF759FF082060640D
:1026D00084F840500120BDE8F8830320FBE7206820
:1026E000006835EA000004D00020B842D2D00020B3
:1026F000F1E70120F9E7FEE77CB50C001D46164620
:10270000014601D0601E00E00020CDE90010064B1C
:102710006A462946304600F079F9002C02D0009A2A
:10272000002111707CBD00001331000837B514463C
:102730000846064B6A46214600F068F90446694699
:10274000002000F0F1FC20463EBD000029310008C9
:10275000490050EAC12018BF04204A0D18BF40F0BC
:10276000010040F2FF72B2EB515F08BF40F002007F
:10277000012808BF052070470907090E002804DB5F
:1027800000F1E02080F80014704700F00F0000F125
:10279000E02080F8141D70472DE9F0414F1E00EB3A
:1027A000C7010446D1E9000115461E4637F006026E
:1027B0000DD02A463346FDF71BFE7F1E04EBC703F0
:1027C000D3E90023FDF76DFD37F00602F1D1022FAA
:1027D00025D0042F13D0062F18BFBDE8F0812A465C
:1027E0003346FDF705FED4E90A23FDF75AFD2A46D4
:1027F0003346FDF7FDFDD4E90823FDF752FD2A46D7
:102800003346FDF7F5FDD4E90623FDF74AFD2A46D8
:102810003346FDF7EDFDD4E90423FDF742FD2A46DA
:102820003346FDF7E5FDD4E90223FDF73AFD2A46DC
:102830003346FDF7DDFDD4E90023BDE8F041FDF7A7
:1028400030BD0122FEF7CAB8FDF72BBD024A0020B9
:102850001107FEF7C3B8000001FDFFFF02E008C842
:10286000121F08C1002AFAD170477047002001E00A
:1028700001C1121F002AFBD1704700000149086006
:1028800070470000100000202DE9FF5F82B000219A
:10289000DDE90430020DDDF840B0034318D044F602
:1028A0001050A2F2FF3242431514119801281FD094
:1028B000A5EB0B00401C5FEA000A4FF000064E4FEC
:1028C000DFF83891B046504615D5CAF1000413E040
:1028D000119801244AA3012801D16FEA0B01029843
:1028E000119AC0E90031C0E9024206B0BDE8F09F8C
:1028F000CBF10000DFE704460021404A491842EBD3
:102900000450CDE9001012E0E00707D032463B4604
:1029100040464946FDF76CFD8046894632463B46B7
:1029200010461946FDF764FD06460F466410002C5C
:10293000EAD1DDE90401DDE90023BAF1000F06DA8E
:10294000FDF756FD42464B46FDF752FD05E0FDF70B
:10295000C1FD42464B46FDF7BDFD04460E46002232
:10296000284BFDF79DFE03D84FF0FF30014607E0EE
:102970000022254B20463146FDF793FCFEF704F874
:10298000102409E0002C0ADB0A220023FDF7D2FE06
:10299000039B30321A55641E50EA0102F2D1641CC6
:1029A000039AC4F111031444119A012A03D001229D
:1029B00008430DD10AE0084304D000204FF0110B6A
:1029C000119072E7A3EB0B056D1E0DE05B4504DD76
:1029D0004FF0000205F1010504E003DA4FF00002B8
:1029E000A5F10105002AECD002981199C0E9023145
:1029F000C0E9004579E70000000014400000F03F06
:102A0000300000000000F0430000E03F2DE9FF4FE0
:102A100095B09A46884606460025EEE1252877D1EE
:102A200000242746F94A0121039400E0044316F8E4
:102A3000013F203B01FA03F01042F7D130782A28F9
:102A400011D06FF02F033078A0F13002092A16D888
:102A5000039A44F0020402EB820203EB42021044A8
:102A6000761C0390EFE758F8042B0392002A03DA50
:102A7000504244F40054039044F00204761C307831
:102A80002E2816D116F8010F44F004042A280DD080
:102A90006FF02F023078A0F13003092B09D807EB33
:102AA000870302EB4303C718761CF3E758F8047B4F
:102AB000761C30786C280FD006DC4C2817D068289C
:102AC0000DD06A2814D104E0742810D07A280FD1D0
:102AD0000DE044F400140AE044F4801401E044F4EE
:102AE00040147278824202D104F58014761C761C60
:102AF000307866280BD013DC582877D009DC002802
:102B000075D04528F6D04628F4D047281AD193E14D
:102B100018E0632835D0642879D0652812D18BE17C
:102B2000702873D008DC6728F1D069286FD06E2830
:102B30000DD06F2806D1ACE073282CD0752874D046
:102B4000782853D05246179990476D1C54E1C4F32E
:102B50000250022809D003280DD0D8F8001004280C
:102B60000DD00D6008F1040846E1D8F80010EA170E
:102B7000C1E90052F6E7D8F800100D80F2E70D70B9
:102B8000F0E718F8041B8DF8001000208DF8010004
:102B9000EB46012003E058F804BB4FF0FF3061071B
:102BA0004FF0000102D40DE009F101018946B9425C
:102BB0000FDA8145F8DB1BF809100029F4D108E091
:102BC00009F1010189468142FADB1BF8091000294D
:102BD000F6D103985346A0EB090721463846179AC9
:102BE00000F080FA284400EB090507E044E008E122
:102BF0000DE01BF8010B524617999047B9F10109F6
:102C0000F7D2534621463846179AF2E039E00A21B6
:102C1000C4F302524FF0000B0091022A06D058F87C
:102C2000040BC117032A09D00AE023E008F10700CA
:102C300020F00702F2E80201904605E000B2C11759
:102C4000042A01D140B2C117002906DA0A46002140
:102C5000404261EB02012D2202E0220504D52B2225
:102C60008DF80420012203E0E20701D02022F7E7DB
:102C7000914657E00A2100E010214FF0000B00912F
:102C80000BE010214FF0000B44F0040408270091E2
:102C900003E008204FF0000B0090C4F30252022A18
:102CA00005D058F8040B0021032A08D008E008F1E9
:102CB000070020F00702F2E80201904603E080B22C
:102CC000042A00D1C0B24FF0000922072AD5327879
:102CD000702A07D0DDF800C08CF0100C5CEA0B0CF9
:102CE00005D00EE040228DF80420012208E050EAD1
:102CF000010306D030238DF804308DF80520022220
:102D00009146009B83F0080353EA0B030AD150EA73
:102D1000010201D1620705D530228DF804204FF061
:102D200001097F1E3278582A04D039A20C920CAACD
:102D300002920BE03BA2F9E75B46009AFDF7FAFC32
:102D40000C9B9B5C029A521E0292137050EA010285
:102D5000F2D1029804A9081A00F1200B600702D5ED
:102D600024F4803400E001275F4502DDA7EB0B006F
:102D700000E0002000EB0B01009003984944401A4A
:102D80000390E00306D453462146179A039800F0B7
:102D9000A9F90544002706E001A85246C05D17992D
:102DA00090476D1C7F1C4F45F6DBE0030CD5534666
:102DB0002146179A039800F095F9054404E0302065
:102DC0005246179990476D1C0099481E00900029A3
:102DD000F5DC08E00298029952460078491C0291FD
:102DE000179990476D1CBBF10001ABF1010BF1DCB1
:102DF0005BE100F065F90544761C307800287FF42B
:102E00000DAE19B02846BDE8F08F0000092801007A
:102E10003031323334353637383961626364656650
:102E20000000000030313233343536373839414212
:102E30004344454600000000600700D4062708F11F
:102E4000070020F00700F0E80223804603F0004C62
:102E50005FEA0C0001D097A009E0200501D596A0FB
:102E600005E0E00701D095A001E0AFF24C0013901F
:102E7000307823F0004365280CD006DC452809D0C3
:102E800046281DD047287FD13BE0662818D0672808
:102E90007AD136E00021112F01DB112000E0781CEF
:102EA000CDE9000104A90CA8FFF7EEFCDDE90D0156
:102EB0000C9A4FF0000B07F10109109200914EE0BF
:102EC0004FF000400097CDE9011004A90CA8FFF7CE
:102ED000DBFCDDE90D020C9B0F994FF0000B9146D6
:102EE0001093009211B9791C00EB0109B7EB0900AE
:102EF00003D4C0F1FF3B07F10109A9EB07000190E2
:102F000042E0012F00DA01270021112F01DD1120FD
:102F100000E03846CDE9000104A90CA8FFF7B4FC95
:102F2000DDE90D010C9A00914FF0000BB9461092AB
:102F300021070FD4009A4A4503DA914601E0A9F12E
:102F40000109B9F1010F05DD109AA9F10101515CE8
:102F50003029F4D0B84202DA10F1040F03DA01216B
:102F6000CDE9011010E0002803DC8344A9EB000147
:102F700002E0411C494500DD8946A0EB0B00401CE6
:102F800001904FF000400290200705D40198484579
:102F900002DB4FF0FF30019000208DF84B000298CB
:102FA0000DF14B07B0F1004F25D002200C902B20E3
:102FB0000D90029800280CDA404202902D200D90CE
:102FC00007E00A210298FDF79FFB3031029007F8D5
:102FD000011D0C99481E0C900029F2DC0298002873
:102FE000EFD1791E0D980870307800F0200040F085
:102FF000450007F8020D11A8C01BC01D02901398D0
:10300000007800B1012000EB0901019801EBE071AB
:10301000029801440398401A401E0390E00306D42E
:1030200053462146179A039800F05CF8054413981C
:10303000007818B15246179990476D1CE00323D5CC
:1030400053462146179A039800F04CF805441BE0BC
:10305000BBF1000F07DB0098584504DD1098179965
:1030600010F80B0001E01799302052469047019864
:103070000BF1010B401E05F10105019004D12E203A
:103080005246179990476D1CB9F10001A9F1010949
:10309000DEDC05E017F8010B5246179990476D1CCE
:1030A0000299481E02900029F4DC53462146179AE3
:1030B00003989EE62D0000002B0000002000000079
:1030C0002DE9F041044600251E461746880404D425
:1030D00005E039462020B0476D1C641EF9D528460E
:1030E000BDE8F0812DE9F041044600251E469046DA
:1030F000C80301D5302700E02027880404D505E067
:1031000041463846B0476D1C641EF9D52846BDE8D7
:10311000F0814A68002A06D00A68531C0B601070C0
:103120004868401E486070470A68531C0B60107066
:10313000704700002DE9F84F04460D4621F000408D
:1031400000917349814211DC7249884201DC06D149
:103150002CB120462946BDE8F84FFFF772BB6E48F8
:10316000002DCCBF6D496E49BDE8F88F6D49814295
:1031700011DD6D498142D8BF4FF0FF366DDD20462D
:103180002946FFF7E5FA042808BFFFF75FFB204652
:103190002946BDE8F88F6549654F25F00045814215
:1031A00033DD6449814219DD002632464FF0804309
:1031B00020462946FDF775F880468A4601222046BA
:1031C0002946FDF70BFC00223B46FDF70BF9424672
:1031D0005346FDF77FF904460D463EE001260022E6
:1031E000BA463B4620462946FDF75BF880460F4627
:1031F0000022534620462946FDF7F4F842463B4656
:10320000FDF768F904460D4627E04B4981421BDD76
:10321000DFF828A102260022534620462946FDF762
:10322000E7F800223B46FDF73CF880460F460022B7
:10323000534620462946FDF7D5F842463B46FDF762
:1032400049F904460D4608E0032622462B46002095
:103250003B49FDF73FF904460D4622462B461046F2
:103260001946FDF7C5F88B46824602460B46FDF728
:10327000BFF807460246334888460B460621784485
:10328000FFF78AFA52465B46FDF7B2F882462E48AF
:103290008B463A46434605217844FFF77DFA3A4685
:1032A0004346FDF7A5F802460B46002E5046594608
:1032B0000CDAFCF7F6FF22462B46FDF799F801B031
:1032C00022462B46BDE8F04FFDF78FB8FCF7E9FF2B
:1032D00022462B46FDF78CF81C4A7A4402EBC603C3
:1032E000D3E90023FDF77EF822462B46FDF77AF856
:1032F000174A7A4402EBC603D3E90023FDF775F8B9
:10330000009A002AB8BF81F00041BDE8F88F0000A4
:10331000000010440000F07F182D4454FB21F93FB9
:10332000FB21F9BF0000DC3F0000203E0000F33F1E
:103330000000F03F0000E63F008003400000F83F3F
:103340000000F0BF760F0000340F0000D20E000026
:103350009A0E00002DE9F04D9446CCF1000423F0C4
:1033600000464CEA0404594F46EAD4749A4688460B
:1033700021F00042BC4206D8454240EA050442EA38
:10338000D474BC4204D9BDE8F04D6246FFF75CBA84
:10339000AAF14055A5F17F6555EA0C040BD0022433
:1033A00004EAAA744A4DDFF82CE144EAD87452EAE0
:1033B000000B04D00CE0BDE8F04DFFF7BBBE002CC5
:1033C00014BF012CBDE8F08D022C30D0032C32D07C
:1033D00056EA0C0B0AD0BE4220D1BA4209D126F0DF
:1033E000804622F080423346114617E000291ADB5E
:1033F00025E0DFF8E4B0FB44002C04BFDBE900016A
:10340000BDE8F08D012C02BFDBE9000181F0004135
:10341000BDE8F08D022C0AD0032C0CD0BA4212D198
:10342000B8F1000F0BDA2A482C49BDE8F08D284688
:103430002B49BDE8F08D28467146BDE8F08D244843
:103440002849BDE8F08D921B12153C2AC4BF204FBD
:10345000244E10DCBAF1000FBEBF12F13C0F002762
:103460003E4608DB6246FDF735F821F00041FFF7E4
:1034700061FE07460E4694B1012C08BF86F0004657
:103480000DD0194A194B022C3846314615D0FCF79D
:10349000A9FF2A46BDE8F04D114BFCF7A3BF00225F
:1034A000134638463146FDF7E3F804BF0220FFF724
:1034B000E5F938463146BDE8F08DFCF793FF2A4622
:1034C000BDE8F04D064BFCF790BF00000000F07F18
:1034D000182D4454FB2109C02E0E0000FB21F9BF1A
:1034E000FB210940FB21F93F075C143326A6A13CD0
:1034F0000EB5FDF7B1FBFFF712F8FDF76BFFFDF717
:10350000A5FF7DA1804800F069F9FEF7A9FC002124
:10351000082341220846FEF7AFFD08237BA20021C5
:103520001020FEF7FBFE0623412212210020FEF7A9
:10353000A3FD062375A212211020FEF7EFFE06243C
:10354000052343F239021C2100200094FEF794FE6B
:1035500002236FF041021C2128200094FEF7AFFEE9
:1035600004234AF2A5521C2146200094FEF701FED6
:103570000823A522262100200094FEF75CFD0220EE
:103580000321CDE90010654A654B029426213C20B9
:10359000FEF790FD082363A230210020FEF7BEFE57
:1035A0006448102300901A4630216020FEF706FE82
:1035B00061A30622122160200094FEF7D6FCFEF7DC
:1035C0001BFF40F6B8373846FDF724FAFDF75CFFDD
:1035D00008210520FEF72EFB08210520FEF7ECFB55
:1035E000234608B156A200E056A204210A20FEF7A5
:1035F00095FE0F237F2200212820FEF7A5FA002345
:103600007F220F212820FEF79FFA00240F230C228F
:10361000142120460094FEF727FB01250F230C22DE
:10362000282100200095FEF71FFB1E262320009670
:10363000CDE901041421192328220846FEF74EFB88
:1036400037200096CDE9010528222D2311461420AC
:10365000FEF744FB002308221B213720FEF77BF8EE
:10366000012308222F213720FEF775F808230C22AA
:103670001B2152200094FEF70DF908230C222F2164
:1036800052200095FEF706F97D26CDE90064192346
:103690000F2212216E20FDF739FFCDE900651923B5
:1036A0000F2226216E20FDF731FFFEF7A5FE3846DA
:1036B000FDF7B0F9F60077100024250110238022D1
:1036C00029460020FEF77AFCFEF796FE3046FDF70D
:1036D000A1F91023802229460020FEF76FFC641C0C
:1036E000E4B2042CE9D3FEF755FCFEF785FE38461C
:1036F000FDF790F9E0E7000053797374656D20429F
:103700006F6F7465642100001400002048656C6CC4
:103710006F20576F726C642100000000CDCCCCCCC0
:10372000CCDC5E4048656C6C6F2CCAC0BDE7A1A3C1
:1037300000000000434100085B253032645D00005A
:10374000594553004E4F20002DE9F04D07460E46D7
:10375000FDF7D6F804460D463A463346FCF745FEDB
:10376000DFF86CA0DFF86CB01B4B0746884616F0FC
:10377000004F4FF000020AD0FCF77AFF0AD900226E
:103780005B4638464146FCF78BFF1BD212E0FCF744
:103790006FFF08D20022534620462946FCF722FE3E
:1037A00004460D460EE000225B4638464146FCF7D3
:1037B00077FF07D80022534620462946FCF771FDC3
:1037C00004460D463146204665F31E01BDE8F08DE6
:1037D0000000F03F0000E03F0000E0BF0FB430B554
:1037E000C1B004464FF4807529466846FCF7D5FC05
:1037F00046AB29466846459AFEF77EFF08A1684613
:10380000FCF7D6FC6846FCF7DFFC82B24FF0FF33D2
:1038100069462046FDF78CFD41B030BC5DF814FBD5
:103820000D0A000000000000000000000000000081
:1038300000000000000000F800000000000000335D
:103840003000000000160E00160E00000000000000
:103850000000000040C07840C0784000043F0404ED
:103860003F040400007088FC08300000001820FFAE
:10387000211E0000F008F000E018000000211C03E9
:103880001E211E0000F00888700000001E21232465
:1038900019272110000000160E0000000000000093
:1038A00000000000000000E0180402000000000713
:1038B0001820400000020418E0000000004020181A
:1038C00007000000404080F0804040000202010FED
:1038D00001020200000000F0000000000101011FD1
:1038E00001010100000000000000000000B07000B5
:1038F00000000000000000000000000000010101C5
:103900000101010100000000000000000030300053
:10391000000000000000000080601804006018062D
:103920000100000000E010080810E000000F102067
:1039300020100F00001010F8000000000020203FB1
:10394000202000000070080808887000003028243B
:1039500022213000003008888848300000182020DC
:1039600020110E000000C02010F800000007042401
:10397000243F240000F80888880808000019212046
:1039800020110E0000E0108888180000000F1120A0
:1039900020110E0000380808C83808000000003F59
:1039A000000000000070880808887000001C2221B8
:1039B00021221C0000E010080810E0000000312265
:1039C00022110F00000000C0C00000000000003005
:1039D00030000000000000C0C0000000000080B007
:1039E0007000000000008040201008000001020468
:1039F00008102000404040404040400004040404BF
:103A0000040404000008102040800000002010087A
:103A100004020100007048080808F00000000030AF
:103A200036010000C030C828E810E000071827243D
:103A300023140B000000C038E0000000203C2302EB
:103A40000227382008F8888888700000203F20204E
:103A500020110E00C0300808080838000718202080
:103A60002010080008F808080810E000203F202077
:103A700020100F0008F88888E8081000203F202058
:103A80002320180008F88888E8081000203F20004C
:103A900003000000C0300808083800000718202084
:103AA000221E020008F808000008F808203F210143
:103AB00001213F20000808F8080800000020203FEE
:103AC0002020000000000808F8080800C08080805E
:103AD0007F00000008F888C028180800203F200157
:103AE0002638200008F8080000000000203F2020B1
:103AF0002020300008F8F800F8F80800203F003FC8
:103B0000003F200008F830C00008F808203F2000DF
:103B100007183F00E01008080810E0000F102020F0
:103B200020100F0008F808080808F000203F2101C5
:103B300001010000E01008080810E0000F1824241C
:103B400038504F0008F8888888887000203F20008F
:103B5000030C302000708808080838000038202145
:103B600021221C00180808F8080818000000203F4F
:103B70002000000008F808000008F808001F2020B6
:103B800020201F000878880000C838080000073887
:103B90000E010000F80800F80008F800033C0700D8
:103BA000073C0300081868808068180820302C0340
:103BB000032C30200838C800C83808000000203F17
:103BC0002000000010080808C83808002038262106
:103BD00020201800000000FE020202000000007F0A
:103BE00040404000000C30C0000000000000000118
:103BF0000638C00000020202FE0000000040404003
:103C00007F000000002010080408102000000000C1
:103C100000000000000000000000000080808080A4
:103C20008080808000020408000000000000000086
:103C30000000000000008080808000000019242225
:103C400022223F2008F8008080000000003F112061
:103C500020110E000000008080800000000E112066
:103C600020201100000000808088F800000E112044
:103C700020103F200000808080800000001F222252
:103C800022221300008080F0888888180020203FBE
:103C9000202000000000808080808000006B9494D1
:103CA0009493600008F8008080800000203F21008D
:103CB00000203F2000809898000000000020203F56
:103CC00020200000000000809898000000C0808044
:103CD000807F000008F8000080808000203F2402E0
:103CE0002D302000000808F8000000000020203FD0
:103CF000202000008080808080808000203F200085
:103D00003F20003F008080008080000000203F2195
:103D100000203F200000808080800000001F2020C5
:103D200020201F00808000808000000080FFA120F4
:103D300020110E000000008080808000000E112005
:103D400020A0FF80808080008080800020203F2194
:103D50002000010000008080808080000033242447
:103D600024241900008080E0808000000000001FF3
:103D7000202000008080000000808000001F2020A4
:103D800020103F20808080000080808000010E3065
:103D90000806010080800080008080800F300C03C6
:103DA0000C300F0000808000808080000020312EC9
:103DB0000E312000808080000080808080818E70A5
:103DC0001806010000808080808080000021302C57
:103DD0002221300000000000807C02020000000070
:103DE000003F404000000000FF0000000000000015
:103DF000FF0000000002027C800000000040403F05
:103E000000000000008040408000008000000000B2
:103E1000000101000000000000000000002F000071
:103E200000000700070000147F147F1400242A7F7D
:103E30002A120023130864620036495522500000FC
:103E40000007000000001C224100000041221C006D
:103E50000014083E08140008083E0808000000A0EE
:103E600060000008080808080000606000000020EA
:103E700010080402003E5149453E0000427F4000C8
:103E8000004261514946002141454B31001814124E
:103E90007F10002745454539003C4A49493000011B
:103EA0007109050300364949493600064949291E6A
:103EB00000003636000000005636000000081422CC
:103EC00041000014141414140000412214080002CC
:103ED00001510906003E4955592E007C1211127CF1
:103EE000007F49494936003E41414122007F41411E
:103EF000221C007F49494941007F09090901003E10
:103F00004149497A007F0808087F0000417F41004D
:103F1000002040413F01007F08142241007F4040C3
:103F20004040007F020C027F007F0408107F003EAB
:103F30004141413E007F09090906003E4151215E91
:103F4000007F091929460046494949310001017F8E
:103F50000101003F4040403F001F2040201F003F24
:103F60004038403F006314081463000708700807D6
:103F700000615149454300007F41410000020408AF
:103F80001020000041417F000004020102040040B3
:103F90004040404000000102040000205454547886
:103FA000007F4844443800384444442000384444A6
:103FB000487F00385454541800087E090102001844
:103FC000A4A4A47C007F080404780000447D400081
:103FD000004080847D00007F102844000000417F65
:103FE0004000007C04180478007C08040478003841
:103FF0004444443800FC242424180018242418FCC9
:10400000007C0804040800485454542000043F4431
:104010004020003C4040207C001C2040201C003CF4
:104020004030403C004428102844001CA0A0A07C44
:10403000004464544C440000087F41000000007FAD
:1040400000000000417F0800000804081008A3AC2D
:104050000000000000000000000000000000000060
:1040600000000058380000000000000000000000C0
:1040700000A1A300000000000000000000000000FC
:1040800000000000000018242418000000000000B8
:1040900000000000C4E300008060F8074020180F13
:1040A00008C80808281800010000FF00100C034091
:1040B000807F0001061800BAC3001010F01F10F036
:1040C00000808282E2928A86800040221508166172
:1040D000000040807F0000000000CAC000202020B7
:1040E000FE2020FF202020FF2020202000000000B4
:1040F0007F404047444444474040400000BDE70003
:10410000000000FE929292FE929292FE0000000049
:1041100008080484621E010001FE0204040808006D
:10412000000000FF0101013109090909897101013C
:104130000101FFFF80808080808096818080808068
:104140008080FFFF01818181FD8991A1C1FD818175
:104150008101FFFF808080809F888482819F808092
:104160008080FF010202030405060708090A0B0C00
:104170000D0E0F10100000000000000000010203EF
:104180000406070809000000000102030400000003
:104190004FBB610567ACDD3F182D4454FB21E93F5F
:1041A0009BF681D20B73EF3F182D4454FB21F93F4E
:1041B000E2652F227F2B7A3C075C143326A6813CD4
:1041C000BDCBF07A8807703C075C143326A6913C7F
:1041D000C4EB98999999C9BF711623FEC671BCBFEB
:1041E0006D9A74AFF2B0B3BF9AFDDE522DDEADBF53
:1041F0002F6C6A2C44B4A2BF0D5555555555D53F6B
:10420000FF8300922449C23F6E204CC5CD45B73F85
:10421000513DD0A0660DB13FEB0D76244B7BA93FFD
:1042200011DA22E33AAD903F0000000000000000E8
:104230005042000800000020140000005C28000824
:1042400064420008140000204C0800006C2800089C
:1042500001000000100000000000000000127A00C1
:04426000000000005A
:0400000508000131BD
:00000001FF
